:0400000041EF00F0DC
:100008005182FACF2EF0FBCF2FF0E9CF30F0EACFB4
:1000180031F0E1CF32F0E2CF33F0D9CF34F0DACF9C
:1000280035F0F3CF36F0F4CF37F0F6CF38F0F7CF1E
:1000380039F0F8CF3AF0F5CF3BF09E92F0903BC004
:10004800F5FF3AC0F8FF39C0F7FF38C0F6FF37C0F0
:10005800F4FF36C0F3FF35C0DAFF34C0D9FF33C030
:10006800E2FF32C0E1FF31C0EAFF30C0E9FF2FC034
:10007800FBFF2EC0FAFF51921100CEEF04F0000EE4
:1000880000016C6F78EC06F008A404D0000E196E1D
:10009800000E1A6E08A007D01950D8A402D0010E7D
:1000A80001D0000E196E08A279D01A50D8A402D037
:1000B800010E01D0000E1A6E71D0000E1A6E195082
:1000C800D8A402D0010E01D0000E00016C6F7CD0C4
:1000D800010E0001666F1950D8A406D01A50D8A492
:1000E80003D0000E0001666F66C06CF06DD0000E84
:1000F8000001676F1950D8B406D01A50D8B403D08D
:10010800010E0001676F67C06CF05ED0010E000140
:10011800686F1950D8B403D01A50D8B409D0195000
:10012800D8A403D01A50D8A403D0000E0001686FD9
:1001380068C06CF049D0000E0001696F1950D8A44E
:1001480006D01A50D8A403D0010E0001696F69C007
:100158006CF03AD0010E00016A6F1950D8B406D07D
:100168001A50D8B403D0000E00016A6F6AC06CF050
:100178002BD0000E00016B6F1950D8B403D01A5061
:10018800D8B409D01950D8A403D01A50D8A403D091
:10019800010E00016B6F6BC06CF016D01750000A8F
:1001A800D8B48BD7010AD8B493D7030AD8B49FD749
:1001B800010AD8B4ABD7070AD8B4BDD7010AD8B456
:1001C800C9D7030AD8B4D5D719C04DF0000E5FECD3
:1001D80006F01AC04DF0010E5FEC06F0940E000117
:1001E800636F1F0E0001646F17C065F0B2EC05F075
:1001F8006CC04DF0090E5FEC06F0120008AC0ED092
:10020800292A030E296402D0000E296E000E1C6EE6
:10021800000E1B6E000E206E010E216E08A607D080
:100228001C50D8A402D0010E01D0000E1C6E08AAE2
:1002380061D01B50D8A402D0010E01D0000E1B6E55
:1002480059D008A864D01C50D8A407D01B50D8B4E3
:1002580004D0000E206E010E216E1C50D8B407D0B9
:100268001B50D8A404D0010E206E000E216E1C5025
:10027800D8B44DD01B50D8B44AD0000E206E38D018
:1002880008A845D01C50D8A407D01B50D8B404D017
:10029800000E206E010E216E1C50D8B407D01B50E2
:1002A800D8A404D0010E206E000E216E1C50D8B4C4
:1002B8002ED01B50D8B42BD02050D8B40AD0000E62
:1002C80009D0216E24D0000E1B6E08A820D01C5027
:1002D800F1D7010E206E215009D0010EF2D7000E81
:1002E8001B6E08A814D01CC020F01C50D8B4F5D739
:1002F800000EE7D72950000AD8B4A3D7010AD8B40A
:10030800BFD7030AD8B4DFD7010AD8B4E8D71CC0CE
:100318004DF00A0E5FEC06F02C50100B4D6E0B0ED4
:100328005FEC06F01BC04DF00C0E5FEC06F0E20E21
:100338000001636F1F0E0001646F29C065F0B2EC05
:1003480005F020C04DF0110E5FEC06F021C04DF015
:10035800120E5FEC06F01200E00ED36E000E9B6EDC
:10036800000E7E6E000E7F6E030E926EFE0E936E72
:10037800000E946E000E956E000E966E020ECA6EFA
:10038800000ECC6E7D0ECB6E48EC04F0F096F18A30
:100398009D82F28CF28ECA84000E1F6E030035EC2B
:1003A80002F03BEC06F024EC06F00BEC06F036D03D
:1003B80047EC05F050D06DEC05F04DD076EC04F02C
:1003C8004AD0160E0001636F1F0E0001646F010E04
:1003D8000001656FF2EC05F03ED0ECEC02F03BD08A
:1003E8000A0E1E18D8A402D0010E01D0000E75EC1A
:1003F80003F031D0ADEC03F02ED09BEC02F02BD003
:1004080043EC00F002EC01F0020E1E18D8A402D052
:10041800010E01D0000EF7EC04F01DD01E50000AAA
:10042800D8B4C6D7030AD8B4C6D7070AD8B4C6D72B
:10043800010AD8B4C6D7030AD8B4CFD7010AD8B4AA
:10044800CFD70F0AD8B4D6D7010AD8B4D6D7030A5B
:10045800D8B4C6D7D5D71F50D8B49ED790EC05F0DE
:100468009BD71550D8B40AD01506000E096E000E99
:10047800086E000E0B6E000E0A6E1200130E156E3B
:100488002CC041F02DC042F0000E2D6E000E2C6ED7
:100498005E0E436E1F0E446E000E406E010E3F6EE0
:1004A80027D0020E43243C6E000E44203D6E3CC013
:1004B800F6FF3DC0F7FF0800F5CF3EF043C0F6FF5A
:1004C80044C0F7FF0900F5CFD9FF0900F5CFDAFFDF
:1004D800DF503E140009D8B404D03F502C124050CD
:1004E8002D12030E4326000E4422D8903F36403684
:1004F80043C0F6FF44C0F7FF0900F5500900F510A6
:10050800D8A4CFD7411C3C6E421C3D6E2C503C14E5
:10051800086E2D503D14096E2C1C3C6E2D1C3D6E32
:1005280041503C140A6E42503D140B6E1200000EEE
:100538004E6E000EF7EC04F078EC06F008B014C02C
:1005480019F008A21AD014C01AF017D019500F0ABF
:100558000CD019501A1009D019501A1406D0195075
:100568001A1803D019501A10F2D74E6E1CD0195011
:100578001A14EDD719501A18EAD71750000AD8B428
:10058800E5D7010AD8B4E5D7030AD8B4E5D7010AF4
:10059800D8B4E5D7070AD8B4E5D7010AD8B4E7D75D
:1005A800030AD8B4E7D7940E0001636F1F0E000149
:1005B800646F17C065F0B2EC05F0D30E0001636FED
:1005C8001F0E0001646F4EC065F0D4EC05F01200F8
:1005D80005C0F6FF06C0F7FF07C0F8FF0800F55092
:1005E800FF0AD8A40AD00EC0D9FF0FC0DAFFDECFA9
:1005F80005F0DECF06F0DDCF07F07C0E0001636F5B
:100608001F0E0001646F05C0F6FF06C0F7FF07C0A4
:10061800F8FF0800F5CF65F0D4EC05F0010E0526CB
:10062800000E0622000E072208A21200030E0E2654
:10063800000E0F220EC0D9FF0FC0DAFFDE50DE1009
:10064800DE10D8A404D06D0E0E6E000E0F6E0EC014
:10065800D9FF0FC0DAFFDECF05F0DECF06F0DDCF21
:1006680007F012004C50D8B41DD0020E4A240001E5
:10067800606F000E4B200001616F60C0F6FF61C023
:10068800F7FF0800F5CF62F04AC0F6FF4BC0F7FF4E
:100698000900F5CFD9FF0900F5CFDAFF0001625153
:1006A800DF121200020E4A240001606F000E4B2078
:1006B8000001616F60C0F6FF61C0F7FF0800F550E8
:1006C800FF0A0001626F4AC0F6FF4BC0F7FF09003E
:1006D800F5CFD9FF0900F5CFDAFF00016251DF1627
:1006E80012004D6E08A20AD0000E3D6E060E3C6E3A
:1006F8009EEC06F0000E266E000E276E640E266035
:100708000ED02650275CD8B002D0272A08D0050E74
:100718002626000E276E17EC04F04850286E4D5020
:10072800D8B40BD0940E0001636F1F0E0001646FE4
:1007380028C065F0B2EC05F01200C40E0001636F2A
:100748001F0E0001646F28280001656FD4EC05F0C6
:1007580012002B50D8A411D01D500A0DF3500008D8
:10076800C80F2B6E16502A262A50D8A402D0010E84
:10077800166E060E2A18D8B416682B0608A20BD0D7
:10078800030E2A18D8A405D00F0E1D6004D01D2A08
:1007980002D0000E1D6E940E0001636F1F0E000143
:1007A800646F2AC065F0B2EC05F0C40E0001636FF7
:1007B8001F0E0001646F1DC065F0D4EC05F0120037
:1007C8004050411042104310D8B424D0010E446E5A
:1007D80006D0D8904036413642364336442A43AE96
:1007E800F8D740503C5C41503D5842503E58435029
:1007F8003F58D8A008D040503C5E41503D5A425026
:100808003E5A43503F5AD8904332423241324032E6
:10081800442EE7D73CC03CF03DC03DF03EC03EF022
:100828003FC03FF0120001C03CF002C03DF003C0E1
:100838003EF004C03FF06D0E406E4E0E416EC60E87
:10084800426E410E436EA3EC04F0390E3C24016E57
:10085800300E3D20026E000E3E20036E000E3F203B
:10086800046E03C03CF004C03DF03E6A3F6A4FC0CE
:1008780040F050C041F0426A436AE4EC03F03CC0E7
:1008880048F03DC049F01200160E0001636F1F0EBC
:100898000001646F000E0001656FF2EC05F08AEC50
:1008A80006F06DEC06F0A8EC06F0A3EC06F050ECB0
:1008B80006F091EC06F081EC06F0010E236E010EB5
:1008C8001E6E140E246E000E256E000E136E000EA2
:1008D800126E000E116E000E106E000E0D6E000EE0
:1008E8000C6E120008A007D01850D8A402D0010E30
:1008F80001D0000E186E08A202D0000E226E08A4C5
:100908000ED01850D8B404D00001666B662B02D004
:100918000001666B2250222400016611226E18C065
:100928004DF0000E5FEC06F0940E0001636F1F0E91
:100938000001646F22C065F0D4EC05F01200000ECF
:10094800446E000E456E000E466E000E476E3CA0CB
:1009580008D0405044264150452242504622435038
:100968004722D8904036413642364336D8903F32F7
:100978003E323D323C323C503D103E103F10D8A430
:10098800E6D744C03CF045C03DF046C03EF047C005
:100998003FF0120000EE01F02D0EEE6AE806FDE1D0
:1009A800300EF66E0D0EF76E000EF86E00EE6DF05E
:1009B80010EE0CF00900F5CFEEFFE550E150FAE13A
:1009C800560EF66E0D0EF76E000EF86E0900F5CF96
:1009D8004FF00900F5CF50F051905192000EF86E8B
:1009E8000001B0EF01F04D6E08BE142A09B01406DC
:1009F8000F0E14164D50D8B414D0C40E0001636FF6
:100A08001F0E0001646F1450010D510EF324F66E91
:100A18001E0EF420F76E0800F5CF65F0D4EC05F053
:100A28001200C40E0001636F1F0E0001646F14C032
:100A380065F0D4EC05F0120065C03CF066C03DF0EE
:100A48009EEC06F015D063C04AF064C04BF017EC7A
:100A580004F048504910D8A402D0010E01D0000E6D
:100A68004C6E36EC03F0030E00016327000E64237E
:100A780063C0F6FF64C0F7FF0900F5500900F510E0
:100A8800D8B41200E0D708AE04D00A0E236001D013
:100A9800232A09A004D0010E236401D02306C40E22
:100AA8000001636F1F0E0001646F23C065F0D4EC72
:100AB80005F008A21200160E0001636F1F0E000158
:100AC800646F000E0001656FF2EC05F023C01EF0A4
:100AD80012002550D8B402D025060FD024C025F026
:100AE800160E0001636F1F0E0001646F000E0001F7
:100AF800666F320E656F20EC05F008AE05D0090E62
:100B0800246402D00A0E245E09A01200F10E2460AB
:100B180012000A0E24261200CA94000ECC6E160E7D
:100B28000001636F1F0E0001646F000E0001656F06
:100B3800F2EC05F0F086D39E0300D38EF096340EC7
:100B48004D6EF20EE82EFED74D2EFCD781B2FED7A1
:100B5800CA84000E0D6E000E0C6E120016D063C013
:100B68004AF064C04BF0000165510001D8A402D0DE
:100B7800010E01D0000E4C6E36EC03F0030E00019E
:100B88006327000E64230001650763C0F6FF64C095
:100B9800F7FF0900F5500900F510D8B41200DFD7A7
:100BA80012D063C04AF064C04BF000016551010BDC
:100BB8004C6E36EC03F0030E00016327000E64232D
:100BC8000001D890653363C0F6FF64C0F7FF0900E1
:100BD800F5500900F510D8B41200E3D70DD063C062
:100BE8004AF064C04BF065C04CF036EC03F0030EDD
:100BF80000016327000E642363C0F6FF64C0F7FF9B
:100C08000900F5500900F510D8B41200E8D70850CB
:100C18000910D8B405D0000E0D6E000E0C6E12002F
:100C2800600E0C5CEA0E0D58D8B003D00C4A0D2AA1
:100C38001200000E0D6E000E0C6E010E1F6E1200DB
:100C48002CB205D0000E116E000E106E1200D00EE0
:100C5800105C070E1158D8B003D0104A112A1200A0
:100C6800000E116E000E106E010E1F6E12002CB0D9
:100C780005D0000E136E000E126E1200D00E125C1C
:100C8800070E1358D8B003D0124A132A120048ECA2
:100C980004F0000E1E6E12006D0E0E6E000E0F6E2A
:100CA8000EC0D9FF0FC0DAFFDECF05F0DECF06F0A9
:100CB800DDCF07F012004E6E4E50030D160EF324D2
:100CC8004A6E1F0EF4204B6E4DC04CF036EC03F00C
:100CD8001200000E296E000E1C6E000E1B6E000E18
:100CE800206E010E216E120008A41200172A060EAB
:100CF80017641200000E176E1200000E1D6E000E13
:100D08002B6E000E2A6E000E166E1200000E176E65
:100D1800000E196E000E1A6E1200640E266E000E7A
:100D2800276E000E286E1200AC1F00611E00F11F16
:100D3800000000003CC04FF03DC050F01200000E13
:100D4800186E000E226E1200000E146E1200FF00C4
:101E50000000010302060705040C0D0F0E0A0B0912
:101E6000080000000000000000000000000000006A
:101E70000000000000000000000000000000000062
:101E80000030213F3F213000213F3F083F3F2100EC
:101E9000213F3F292933000000213F3F21213F1EE0
:101EA00000213F3F21001E3F2127370400213F3FF3
:101EB0002100213F3F243F1B01203E3F01213E20C6
:101EC00000213F3F210300213F3F2929330000002B
:101ED000213F3F243F1B01203E3F01213E200021A6
:101EE0003F3F210300213F3F29293300193D2D2F7A
:101EF00026003D3D00000000000000000000000042
:101F000000000000000000000000000000000000D1
:101F10000000000000FF800F04800F08800F108079
:101F20000F20800F40800F80840F01840F02840FE8
:101F300004820F01820F02820F04820F08820F10A9
:101F4000820F20830F01830F02830F04830F088306
:101F50000F10830F20830F40830F80000000810F3C
:101F600002810F04810F08810F10810F20810F4023
:101F7000810F80800F02800F01000000840F048415
:101F80000F02840F01800F80800F40800F20800F90
:101F900010000000800F10800F20800F40800F8005
:101FA000840F01840F02840F040000000402010169
:101FB000010101010101010206081030202020204A
:101FC000201018FF830F80830F40830F20830F1092
:101FD000000000830F02830F01820F20820F100088
:101FE0000000820F10820F20830F01830F02000078
:101FF0000000003E4169454569413E0000FF000088
:020000040030CA
:08000000FF08141EFF0B81FF35
:00000001FF
