:0400000045EF00F0D8
:100008005182FACF2CF0FBCF2DF0E9CF2EF0EACFBA
:100018002FF0E1CF30F0E2CF31F0D9CF32F0DACFA4
:1000280033F0F3CF34F0F4CF35F0F6CF36F0F7CF26
:1000380037F0F8CF38F0F5CF39F09EB29E92F0A0A5
:1000480002D0F096F09039C0F5FF38C0F8FF37C0FD
:10005800F7FF36C0F6FF35C0F4FF34C0F3FF33C0F6
:10006800DAFF32C0D9FF31C0E2FF30C0E1FF2FC054
:10007800EAFF2EC0E9FF2DC0FBFF2CC0FAFF51920A
:100088001100C1EF04F0000E0001756F7BEC06F063
:1000980008A404D0000E176E000E186E08A007D032
:1000A8001750D8A402D0010E01D0000E176E08A276
:1000B80079D01850D8A402D0010E01D0000E186EC5
:1000C80071D0000E186E1750D8A402D0010E01D0BE
:1000D800000E0001756F7CD0010E00016F6F175084
:1000E800D8A406D01850D8A403D0000E00016F6F12
:1000F8006FC075F06DD0000E0001706F1750D8B446
:1001080006D01850D8B403D0010E0001706F70C02B
:1001180075F05ED0010E0001716F1750D8B403D08E
:100128001850D8B409D01750D8A403D01850D8A460
:1001380003D0000E0001716F71C075F049D0000E38
:100148000001726F1750D8A406D01850D8A403D055
:10015800010E0001726F72C075F03AD0010E0001F5
:10016800736F1750D8B406D01850D8B403D0000E07
:100178000001736F73C075F02BD0000E0001746F0F
:100188001750D8B403D01850D8B409D01750D8A4F1
:1001980003D01850D8A403D0010E0001746F74C0A6
:1001A80075F016D01550000AD8B48BD7010AD8B408
:1001B80093D7030AD8B49FD7010AD8B4ABD7070A94
:1001C800D8B4BDD7010AD8B4C9D7030AD8B4D5D78B
:1001D80017C04EF0000E44EC06F018C04EF0010EA9
:1001E80044EC06F0940E00016C6F1F0E00016D6F59
:1001F80015C06EF0A6EC05F075C04EF0090E44EC83
:1002080006F0120008AC0ED0272A030E276402D08D
:10021800000E276E000E1A6E000E196E000E1E6E6E
:10022800010E1F6E08A607D01A50D8A402D0010EDE
:1002380001D0000E1A6E08AA61D01950D8A402D0B5
:10024800010E01D0000E196E59D008A864D01A50BA
:10025800D8A407D01950D8B404D0000E1E6E010ED1
:100268001F6E1A50D8B407D01950D8A404D0010E64
:100278001E6E000E1F6E1A50D8B44DD01950D8B447
:100288004AD0000E1E6E38D008A845D01A50D8A4FF
:1002980007D01950D8B404D0000E1E6E010E1F6E80
:1002A8001A50D8B407D01950D8A404D0010E1E6E25
:1002B800000E1F6E1A50D8B42ED01950D8B42BD0B7
:1002C8001E50D8B40AD0000E09D01F6E24D0000EDC
:1002D800196E08A820D01A50F1D7010E1E6E1F50B3
:1002E80009D0010EF2D7000E196E08A814D01AC052
:1002F8001EF01A50D8B4F5D7000EE7D72750000AD9
:10030800D8B4A3D7010AD8B4BFD7030AD8B4DFD763
:10031800010AD8B4E8D71AC04EF00A0E44EC06F029
:100328002A50100B4E6E0B0E44EC06F019C04EF01E
:100338000C0E44EC06F0E20E00016C6F1F0E00017B
:100348006D6F27C06EF0A6EC05F01EC04EF0110EC2
:1003580044EC06F01FC04EF0120E44EC06F01200FA
:10036800E00ED36E000E9B6E000E7E6E000E7F6E4A
:10037800030E926EFE0E936E000E946E000E956E36
:10038800000E966E020ECA6E000ECC6E7D0ECB6EFF
:1003980063EC06F03BEC04F0F096F18A9D82F28C57
:1003A800F28ECA84000E1D6E03003BEC02F02FECA7
:1003B80006F018EC06F0FFEC05F036D03AEC05F044
:1003C80050D083EC05F04DD069EC04F04AD0160EFD
:1003D80000016C6F1F0E00016D6F010E00016E6F42
:1003E800E6EC05F03ED0E6EC02F03BD00A0E1C1815
:1003F800D8A402D0010E01D0000E30EC03F031D0A9
:10040800A0EC03F02ED093EC02F02BD047EC00F0D8
:1004180006EC01F0020E1C18D8A402D0010E01D07F
:10042800000EEAEC04F01DD01C50000AD8B4C6D760
:10043800030AD8B4C6D7070AD8B4C6D7010AD8B4AD
:10044800C6D7030AD8B4CFD7010AD8B4CFD70F0A72
:10045800D8B4D6D7010AD8B4D6D7030AD8B4C6D7E1
:10046800D5D71D50D8B49ED760EC05F09BD7135054
:10047800D8B406D01306000E096E000E086E1200DE
:10048800130E136E2AC03DF02BC03EF0000E2B6EEB
:10049800000E2A6E5E0E416E1F0E426E000E406EFA
:1004A800010E3F6E27D0020E41243A6E000E422004
:1004B8003B6E3AC0F6FF3BC0F7FF0800F5CF3CF0B3
:1004C80041C0F6FF42C0F7FF0900F5CFD9FF090088
:1004D800F5CFDAFFDF503C140009D8B404D03F5000
:1004E8002A1240502B12030E4126000E4222D890A9
:1004F8003F36403641C0F6FF42C0F7FF0900F550CD
:100508000900F510D8A4CFD73D1C3A6E3E1C3B6EAF
:100518002A503A14086E2B503B14096E1200000E34
:1005280000016F6F000EEAEC04F07BEC06F008B0F7
:1005380012C017F008A21BD012C018F018D017501C
:100548000F0A0CD01750181009D01750181406D0DD
:100558001750181803D017501810F2D700016F6FF2
:100568001CD017501814ECD717501818E9D7155085
:10057800000AD8B4E4D7010AD8B4E4D7030AD8B437
:10058800E4D7010AD8B4E4D7070AD8B4E4D7010AF3
:10059800D8B4E7D7030AD8B4E7D7940E00016C6F34
:1005A8001F0E00016D6F15C06EF0A6EC05F0D30E9E
:1005B80000016C6F1F0E00016D6F6FC06EF0C8EC0C
:1005C80005F0120005C0F6FF06C0F7FF07C0F8FFE8
:1005D8000800F550FF0AD8A40AD00CC0D9FF0DC0F6
:1005E800DAFFDECF05F0DECF06F0DDCF07F07C0EB8
:1005F80000016C6F1F0E00016D6F05C0F6FF06C08D
:10060800F7FF07C0F8FF0800F5CF6EF0C8EC05F05B
:10061800010E0526000E0622000E072208A212006F
:10062800030E0C26000E0D220CC0D9FF0DC0DAFFF8
:10063800DE50DE10DE10D8A404D0600E0C6E000E62
:100648000D6E0CC0D9FF0DC0DAFFDECF05F0DECF8E
:1006580006F0DDCF07F012004E6E2AA20AD0000E77
:100668003B6E060E3A6EA1EC06F0000E246E000EEC
:10067800256E640E24600ED02450255CD8B002D0BC
:10068800252A08D0050E2426000E256E0AEC04F053
:100698004650266E4E50D8B40BD0940E00016C6FA5
:1006A8001F0E00016D6F26C06EF0A6EC05F012005B
:1006B800C40E00016C6F1F0E00016D6F262800012B
:1006C8006E6FC8EC05F012004A50D8B41AD0020E6A
:1006D80048244B6E000E49204C6E4BC0F6FF4CC0B0
:1006E800F7FF0800F5CF4DF048C0F6FF49C0F7FF07
:1006F8000900F5CFD9FF0900F5CFDAFF4D50DF1219
:100708001200020E48244B6E000E49204C6E4BC05E
:10071800F6FF4CC0F7FF0800F550FF0A4D6E48C0C1
:10072800F6FF49C0F7FF0900F5CFD9FF0900F5CF5B
:10073800DAFF4D50DF1612002950D8A411D01B50F3
:100748000A0DF3500008C80F296E145028262850A7
:10075800D8A402D0010E146E060E2818D8B4146856
:10076800290608A20BD0030E2818D8A405D00F0E0E
:100778001B6004D01B2A02D0000E1B6E940E0001D1
:100788006C6F1F0E00016D6F28C06EF0A6EC05F0AF
:10079800C40E00016C6F1F0E00016D6F1BC06EF060
:1007A800C8EC05F012003E503F1040104110D8B47C
:1007B80024D0010E426E06D0D8903E363F364036E1
:1007C8004136422A41AEF8D73E503A5C3F503B583A
:1007D80040503C5841503D58D8A008D03E503A5E51
:1007E8003F503B5A40503C5A41503D5AD8904132B4
:1007F80040323F323E32422EE7D73AC03AF03BC051
:100808003BF03CC03CF03DC03DF0120001C03AF066
:1008180002C03BF003C03CF004C03DF06D0E3E6EDC
:100828004E0E3F6EC60E406E410E416E96EC04F0C1
:10083800390E3A24016E300E3B20026E000E3C2029
:10084800036E000E3D20046E03C03AF004C03BF076
:100858003C6A3D6A4FC03EF050C03FF0406A416A72
:10086800D7EC03F03AC046F03BC047F01200160E32
:1008780000016C6F1F0E00016D6F000E00016E6F9E
:10088800E6EC05F08DEC06F070EC06F0ABEC06F04B
:10089800A6EC06F054EC06F094EC06F084EC06F0B6
:1008A800010E216E010E1C6E140E226E000E236EB8
:1008B800000E116E000E106E000E0F6E000E0E6E02
:1008C800000E0B6E000E0A6E120008A007D016501C
:1008D800D8A402D0010E01D0000E166E08A202D0D4
:1008E800000E206E08A40ED01650D8B404D0000113
:1008F8006F6B6F2B02D000016F6B2050202400011A
:100908006F11206E16C04EF0000E44EC06F0940EE7
:1009180000016C6F1F0E00016D6F20C06EF0C8ECF7
:1009280005F01200000E426E000E436E000E446E7B
:10093800000E456E3AA008D03E5042263F50432252
:100948004050442241504522D8903E363F364036EA
:100958004136D8903D323C323B323A323A503B1025
:100968003C103D10D8A4E6D742C03AF043C03BF053
:1009780044C03CF045C03DF0120000EE01F02B0EE3
:10098800EE6AE806FDE1360EF66E0D0EF76E000E05
:10099800F86E00EE60F010EE0CF00900F5CFEEFFF7
:1009A800E550E150FAE15C0EF66E0D0EF76E000EA2
:1009B800F86E0900F5CF4FF00900F5CF50F05190CF
:1009C8005192000EF86E0001B4EF01F04E6E08BEB1
:1009D800122A09B012060F0E12164E50D8B414D0AF
:1009E800C40E00016C6F1F0E00016D6F1250010DD7
:1009F800510EF324F66E1E0EF420F76E0800F5CFA4
:100A08006EF0C8EC05F01200C40E00016C6F1F0EEA
:100A180000016D6F12C06EF0C8EC05F012006EC0D8
:100A28003AF06FC03BF0A1EC06F015D06CC048F06E
:100A38006DC049F00AEC04F046504710D8A402D023
:100A4800010E01D0000E4A6E68EC03F0030E00019F
:100A58006C27000E6D236CC0F6FF6DC0F7FF090010
:100A6800F5500900F510D8B41200E0D708AE04D04C
:100A78000A0E216001D0212A09A004D0010E2164A8
:100A880001D02106C40E00016C6F1F0E00016D6FAE
:100A980021C06EF0C8EC05F008A21200160E000185
:100AA8006C6F1F0E00016D6F000E00016E6FE6EC9B
:100AB80005F021C01CF01200CA94000ECC6E160E70
:100AC80000016C6F1F0E00016D6F000E00016E6F4C
:100AD800E6EC05F0D39EF0860300340E4E6EF20E5F
:100AE800E82EFED74E2EFCD781A2F5D7D38E63EC25
:100AF80006F0CA84000E0B6E000E0A6E1200235018
:100B0800D8B402D023060FD022C023F0160E00015D
:100B18006C6F1F0E00016D6F000E00016F6F320EBB
:100B28006E6F13EC05F008AE05D0090E226402D0F2
:100B38000A0E225E09A01200F10E226012000A0EAF
:100B48002226120016D06CC048F06DC049F0000192
:100B58006E510001D8A402D0010E01D0000E4A6ED9
:100B680068EC03F0030E00016C27000E6D230001F2
:100B78006E076CC0F6FF6DC0F7FF0900F55009005D
:100B8800F510D8B41200DFD712D06CC048F06DC091
:100B980049F000016E51010B4A6E68EC03F0030E38
:100BA80000016C27000E6D230001D8906E336CC0D5
:100BB800F6FF6DC0F7FF0900F5500900F510D8B42D
:100BC8001200E3D70DD06CC048F06DC049F06EC07C
:100BD8004AF068EC03F0030E00016C27000E6D2349
:100BE8006CC0F6FF6DC0F7FF0900F5500900F5105D
:100BF800D8B41200E8D708500910D8B405D0000EB0
:100C08000B6E000E0A6E1200600E0A5CEA0E0B589C
:100C1800D8B003D00A4A0B2A1200000E0B6E000E41
:100C28000A6E010E1D6E12002AB205D0000E0F6E5C
:100C3800000E0E6E1200D00E0E5C070E0F58D8B0C4
:100C480003D00E4A0F2A1200000E0F6E000E0E6E11
:100C5800010E1D6E12002AB005D0000E116E000E96
:100C6800106E1200D00E105C070E1158D8B003D0C9
:100C7800104A112A12003BEC04F0000E1C6E120000
:100C880000016C6F00016C51030D160EF324486EC1
:100C98001F0EF420496E4EC04AF068EC03F01200B3
:100CA800600E0C6E000E0D6E0CC0D9FF0DC0DAFF81
:100CB800DECF05F0DECF06F0DDCF07F01200000E24
:100CC8002B6E000E2A6E000E136E3BEC02F0000E27
:100CD800096E000E086E1200000E276E000E1A6EC6
:100CE800000E196E000E1E6E010E1F6E120008A473
:100CF8001200152A060E15641200000E156E120059
:100D0800000E1B6E000E296E000E286E000E146E6B
:100D18001200000E156E000E176E000E186E1200EF
:100D2800640E246E000E256E000E266E1200AC1F97
:100D380000611E00F11F000000003AC04FF03BC0E8
:100D480050F01200000E166E000E206E1200000EFB
:060D5800126E1200FF0004
:101E50000000010302060705040C0D0F0E0A0B0912
:101E6000080000000000000000000000000000006A
:101E70000000000000000000000000000000000062
:101E80000030213F3F213000213F3F083F3F2100EC
:101E9000213F3F292933000000213F3F21213F1EE0
:101EA00000213F3F21001E3F2127370400213F3FF3
:101EB0002100213F3F243F1B01203E3F01213E20C6
:101EC00000213F3F210300213F3F2929330000002B
:101ED000213F3F243F1B01203E3F01213E200021A6
:101EE0003F3F210300213F3F29293300193D2D2F7A
:101EF00026003D3D00000000000000000000000042
:101F000000000000000000000000000000000000D1
:101F10000000000000FF800F04800F08800F108079
:101F20000F20800F40800F80840F01840F02840FE8
:101F300004820F01820F02820F04820F08820F10A9
:101F4000820F20830F01830F02830F04830F088306
:101F50000F10830F20830F40830F80000000810F3C
:101F600002810F04810F08810F10810F20810F4023
:101F7000810F80800F02800F01000000840F048415
:101F80000F02840F01800F80800F40800F20800F90
:101F900010000000800F10800F20800F40800F8005
:101FA000840F01840F02840F040000000402010169
:101FB000010101010101010206081030202020204A
:101FC000201018FF830F80830F40830F20830F1092
:101FD000000000830F02830F01820F20820F100088
:101FE0000000820F10820F20830F01830F02000078
:101FF0000000003E4169454569413E0000FF000088
:020000040030CA
:08000000FF081C1EFF0B81FF2D
:00000001FF
