:0400000041EF00F0DC
:100008005182FACF2DF0FBCF2EF0E9CF2FF0EACFB7
:1000180030F0E1CF31F0E2CF32F0D9CF33F0DACFA0
:1000280034F0F3CF35F0F4CF36F0F6CF37F0F7CF22
:1000380038F0F8CF39F0F5CF3AF09E92F0903AC008
:10004800F5FF39C0F8FF38C0F7FF37C0F6FF36C0F4
:10005800F4FF35C0F3FF34C0DAFF33C0D9FF32C034
:10006800E2FF31C0E1FF30C0EAFF2FC0E9FF2EC038
:10007800FBFF2DC0FAFF51921100F7EF04F0000EBC
:100088000001756F71EC06F008A404D0000E196E1B
:10009800000E1A6E08A007D01950D8A402D0010E7D
:1000A80001D0000E196E08A279D01A50D8A402D037
:1000B800010E01D0000E1A6E71D0000E1A6E195082
:1000C800D8A402D0010E01D0000E0001756F7CD0BB
:1000D800010E00016F6F1950D8A406D01A50D8A489
:1000E80003D0000E00016F6F6FC075F06DD0000E69
:1000F8000001706F1950D8B406D01A50D8B403D084
:10010800010E0001706F70C075F05ED0010E000125
:10011800716F1950D8B403D01A50D8B409D01950F7
:10012800D8A403D01A50D8A403D0000E0001716FD0
:1001380071C075F049D0000E0001726F1950D8A433
:1001480006D01A50D8A403D0010E0001726F72C0F5
:1001580075F03AD0010E0001736F1950D8B406D06B
:100168001A50D8B403D0000E0001736F73C075F035
:100178002BD0000E0001746F1950D8B403D01A5058
:10018800D8B409D01950D8A403D01A50D8A403D091
:10019800010E0001746F74C075F016D01750000A74
:1001A800D8B48BD7010AD8B493D7030AD8B49FD749
:1001B800010AD8B4ABD7070AD8B4BDD7010AD8B456
:1001C800C9D7030AD8B4D5D719C06CF0000E47ECCC
:1001D80006F01AC06CF0010E47EC06F0950E00010F
:1001E8006C6F1F0E00016D6F17C06EF090EC05F07C
:1001F80075C06CF0090E47EC06F0120008AC0ED082
:10020800282A030E286402D0000E286E000E1C6EE9
:10021800000E1B6E000E1F6E010E206E08A607D082
:100228001C50D8A402D0010E01D0000E1C6E08AAE2
:1002380061D01B50D8A402D0010E01D0000E1B6E55
:1002480059D008A864D01C50D8A407D01B50D8B4E3
:1002580004D0000E1F6E010E206E1C50D8B407D0BB
:100268001B50D8A404D0010E1F6E000E206E1C5027
:10027800D8B44DD01B50D8B44AD0000E1F6E38D019
:1002880008A845D01C50D8A407D01B50D8B404D017
:10029800000E1F6E010E206E1C50D8B407D01B50E4
:1002A800D8A404D0010E1F6E000E206E1C50D8B4C6
:1002B8002ED01B50D8B42BD01F50D8B40AD0000E63
:1002C80009D0206E24D0000E1B6E08A820D01C5028
:1002D800F1D7010E1F6E205009D0010EF2D7000E83
:1002E8001B6E08A814D01CC01FF01C50D8B4F5D73A
:1002F800000EE7D72850000AD8B4A3D7010AD8B40B
:10030800BFD7030AD8B4DFD7010AD8B4E8D71CC0CE
:100318006CF00A0E47EC06F02B50100B00016C6FC6
:100328000B0E47EC06F01BC06CF00C0E47EC06F009
:10033800E30E00016C6F1F0E00016D6F28C06EF098
:1003480090EC05F01FC06CF0110E47EC06F020C0D1
:100358006CF0120E47EC06F01200E00ED36E000EA1
:100368009B6E000E7E6E000E7F6E030E926EFE0E6A
:10037800936E000E946E000E956E000E966E020E31
:10038800CA6E000ECC6E7D0ECB6E45EC04F0F09676
:10039800F18A9D82F28CF28ECA84030034EC02F05A
:1003A8000AEC06F034EC06F01FEC06F039D047EC06
:1003B80005F0F3D76DEC05F0F0D773EC04F0EDD74A
:1003C800170E00016C6F1F0E00016D6F010E00010A
:1003D8006E6FF1EC05F0E1D7EDEC02F0DED70A0E16
:1003E8001E18D8A402D0010E01D0000E37EC03F07D
:1003F800D4D7AAEC03F0D1D79AEC02F0CED7B2EC5E
:1004080005F0CBD743EC00F002EC01F0020E1E1809
:10041800D8A402D0010E01D0000EA0EC04F0BDD784
:100428001E50000AD8B4C3D7030AD8B4C3D7070AE2
:10043800D8B4C3D7010AD8B4C3D7030AD8B4CCD721
:10044800010AD8B4CCD70F0AD8B4D3D7010AD8B484
:10045800D3D7030AD8B4C3D7060AD8B4D0D7D2D7CB
:100468001550D8B40AD01506000E096E000E086E95
:10047800000E0B6E000E0A6E1200130E156E2BC0C6
:1004880040F02CC041F0000E2C6E000E2B6E5F0E5B
:10049800426E1F0E436E000E3F6E010E3E6E27D059
:1004A800020E42243B6E000E43203C6E3BC0F6FF1A
:1004B8003CC0F7FF0800F5CF3DF042C0F6FF43C04F
:1004C800F7FF0900F5CFD9FF0900F5CFDAFFDF50B4
:1004D8003D140009D8B404D03E502B123F502C12C2
:1004E800030E4226000E4322D8903E363F3642C0C5
:1004F800F6FF43C0F7FF0900F5500900F510D8A42E
:10050800CFD7401C3B6E411C3C6E2B503B14086EF1
:100518002C503C14096E2B1C3B6E2C1C3C6E40501E
:100528003B140A6E41503C140B6E1200000E000181
:10053800706F000EA0EC04F071EC06F008B014C067
:1005480019F008A21BD014C01AF018D019500F0ABD
:100558000CD019501A1009D019501A1406D0195075
:100568001A1803D019501A10F2D70001706F1CD056
:1005780019501A14ECD719501A18E9D71750000A4D
:10058800D8B4E4D7010AD8B4E4D7030AD8B4E4D776
:10059800010AD8B4E4D7070AD8B4E4D7010AD8B412
:1005A800E7D7030AD8B4E7D7950E00016C6F1F0E82
:1005B80000016D6F17C06EF090EC05F0D40E0001CD
:1005C8006C6F1F0E00016D6F70C06EF0D3EC05F0FC
:1005D800120005C0F6FF06C0F7FF07C0F8FF0800C5
:1005E800F550FF0AD8A40AD00EC0D9FF0FC0DAFF11
:1005F800DECF05F0DECF06F0DDCF07F07D0E00017F
:100608006C6F1F0E00016D6F05C0F6FF06C0F7FF87
:1006180007C0F8FF0800F5CF6EF0D3EC05F0010E27
:100628000526000E0622000E072208A21200030E5D
:100638000E26000E0F220EC0D9FF0FC0DAFFDE50C3
:10064800DE10DE10D8A404D0600E0E6E000E0F6E01
:100658000EC0D9FF0FC0DAFFDECF05F0DECF06F0FF
:10066800DDCF07F0120000016F6F08A20AD0000E5C
:100678003C6E060E3B6E97EC06F0000E256E000EE3
:10068800266E640E25600ED02550265CD8B002D0A8
:10069800262A08D0050E2526000E266E14EC04F036
:1006A8004750276E00016F510001D8B40BD0950E4A
:1006B80000016C6F1F0E00016D6F27C06EF090EC8B
:1006C80005F01200C50E00016C6F1F0E00016D6F62
:1006D800272800016E6FD3EC05F012004B50D8B4F8
:1006E8001AD0020E49244C6E000E4A204D6E4CC0A2
:1006F800F6FF4DC0F7FF0800F5CF4EF049C0F6FFF2
:100708004AC0F7FF0900F5CFD9FF0900F5CFDAFF96
:100718004E50DF121200020E49244C6E000E4A2081
:100728004D6E4CC0F6FF4DC0F7FF0800F550FF0AAC
:100738004E6E49C0F6FF4AC0F7FF0900F5CFD9FF52
:100748000900F5CFDAFF4E50DF1612002A50D8A460
:1007580011D01D500A0DF3500008C80F2A6E16500C
:1007680029262950D8A402D0010E166E060E291883
:10077800D8B416682A0608A20BD0030E2918D8A4E4
:1007880005D00F0E1D6004D01D2A02D0000E1D6E6C
:10079800950E00016C6F1F0E00016D6F29C06EF081
:1007A80090EC05F0C50E00016C6F1F0E00016D6F17
:1007B8001DC06EF0D3EC05F012003F504010411000
:1007C8004210D8B424D0010E436E06D0D8903F36DC
:1007D800403641364236432A42AEF8D73F503B5C5A
:1007E80040503C5841503D5842503E58D8A008D03F
:1007F8003F503B5E40503C5A41503D5A42503E5A51
:10080800D8904232413240323F32432EE7D73BC084
:100818003BF03CC03CF03DC03DF03EC03EF0120015
:1008280001C03BF002C03CF003C03DF004C03EF004
:100838006D0E3F6E4E0E406EC60E416E410E426EFC
:10084800CCEC04F0390E3B24016E300E3C20026ED5
:10085800000E3D20036E000E3E20046E03C03BF0E8
:1008680004C03CF03D6A3E6A4FC03FF050C040F0C3
:10087800416A426AE1EC03F03BC047F03CC048F0F3
:100888001200170E00016C6F1F0E00016D6F000E35
:1008980000016E6FF1EC05F083EC06F066EC06F0F3
:1008A800A1EC06F09CEC06F057EC06F08AEC06F09A
:1008B8007AEC06F0010E226E010E1E6E140E236EE7
:1008C800000E246E000E136E000E126E000E116ED6
:1008D800000E106E000E0D6E000E0C6E120008A0B9
:1008E80007D01850D8A402D0010E01D0000E186EFF
:1008F80008A202D0000E216E08A40ED01850D8B459
:1009080004D000016F6B6F2B02D000016F6B215078
:10091800212400016F11216E18C06CF0000E47EC05
:1009280006F0950E00016C6F1F0E00016D6F21C05F
:100938006EF0D3EC05F0120000016F6F08BE142AA8
:1009480009B014060F0E141600016F510001D8B437
:1009580014D0C50E00016C6F1F0E00016D6F14508E
:10096800010D530EF324F66E1E0EF420F76E0800E8
:10097800F5CF6EF0D3EC05F01200C50E00016C6FD8
:100988001F0E00016D6F14C06EF0D3EC05F012005D
:10099800000E436E000E446E000E456E000E466E4D
:1009A8003BA008D03F5043264050442241504522A6
:1009B80042504622D8903F36403641364236D8908B
:1009C8003E323D323C323B323B503C103D103E10F3
:1009D800D8A4E6D743C03BF044C03CF045C03DF046
:1009E80046C03EF0120000EE01F02C0EEE6AE8065A
:1009F800FDE1220EF66E0D0EF76E000EF86E00EE9B
:100A080060F010EE0CF00900F5CFEEFFE550E15074
:100A1800FAE1480EF66E0D0EF76E000EF86E09003C
:100A2800F5CF4FF00900F5CF50F051905192000EDC
:100A3800F86E0001B1EF01F06EC03BF06FC03CF002
:100A480097EC06F015D06CC049F06DC04AF014EC74
:100A580004F047504810D8A402D0010E01D0000E6F
:100A68004B6E72EC03F0030E00016C27000E6D2331
:100A78006CC0F6FF6DC0F7FF0900F5500900F510CE
:100A8800D8B41200E0D708AE04D00A0E226001D014
:100A9800222A09A004D0010E226401D02206C50E24
:100AA80000016C6F1F0E00016D6F22C06EF0D3EC59
:100AB80005F008A21200170E00016C6F1F0E00014E
:100AC8006D6F000E00016E6FF1EC05F022C01EF094
:100AD80012002450D8B402D024060FD023C024F02A
:100AE800170E00016C6F1F0E00016D6F000E0001E4
:100AF8006F6F320E6E6F20EC05F008AE05D0090E50
:100B0800236402D00A0E235E09A01200F10E2360AE
:100B180012000A0E2326120016D06CC049F06DC0D0
:100B28004AF000016E510001D8A402D0010E01D094
:100B3800000E4B6E72EC03F0030E00016C27000EE2
:100B48006D2300016E076CC0F6FF6DC0F7FF09004A
:100B5800F5500900F510D8B41200DFD7CA94000E7A
:100B6800CC6E170E00016C6F1F0E00016D6F000E2A
:100B780000016E6FF1EC05F0F086D39E0300D38E72
:100B8800F096340E00016F6FF20EE82EFED76F2F2D
:100B9800FCD781B2FED7CA8445EC04F0120012D00B
:100BA8006CC049F06DC04AF000016E51010B4B6EEC
:100BB80072EC03F0030E00016C27000E6D23000198
:100BC800D8906E336CC0F6FF6DC0F7FF0900F55082
:100BD8000900F510D8B41200E3D70DD06CC049F065
:100BE8006DC04AF06EC04BF072EC03F0030E0001CA
:100BF8006C27000E6D236CC0F6FF6DC0F7FF09006F
:100C0800F5500900F510D8B41200E8D72BB005D07C
:100C1800000E136E000E126E1200D00E125C070E3C
:100C28001358D8B003D0124A132A120045EC04F026
:100C3800000E1E6E120008500910D8B405D0000E20
:100C48000D6E000E0C6E1200600E0C5CEA0E0D5854
:100C5800D8B003D00C4A0D2A12000C0E1E6E1200DA
:100C68002BB205D0000E116E000E106E1200D00EC1
:100C7800105C070E1158D8B003D0104A112A120080
:100C88000C0E1E6E120000016D6F00016D51030DF8
:100C9800170EF324496E1F0EF4204A6E6CC04BF0F9
:100CA80072EC03F01200600E0E6E000E0F6E0EC096
:100CB800D9FF0FC0DAFFDECF05F0DECF06F0DDCFBB
:100CC80007F01200000E286E000E1C6E000E1B6E40
:100CD800000E1F6E010E206E120008A41200172AC3
:100CE800060E17641200000E176E1200000E1D6E1D
:100CF800000E2A6E000E296E000E166E1200000EEF
:100D0800176E000E196E000E1A6E1200640E256E14
:100D1800000E266E000E276E1200AD1F00631E0027
:100D2800F21F000000003BC04FF03CC050F0120022
:100D3800000E186E000E216E1200000E146E1200C6
:020D4800FF00AA
:101E52000000010302060705040C0D0F0E0A0B0910
:101E62000800000000000000000000000000000068
:101E72000000000000000000000000000000000060
:101E82000030213F3F213000213F3F083F3F2100EA
:101E9200213F3F292933000000213F3F21213F1EDE
:101EA20000213F3F21001E3F2127370400213F3FF1
:101EB2002100213F3F243F1B01203E3F01213E20C4
:101EC20000213F3F210300213F3F29293300000029
:101ED200213F3F243F1B01203E3F01213E200021A4
:101EE2003F3F210300213F3F29293300193D2D2F78
:101EF20026003D3D00000000000000000000000040
:101F020000000000000000000000000000000000CF
:101F120000000000FF800F04800F08800F10800F68
:101F220020800F40800F80840F01840F02840F04F1
:101F3200820F01820F02820F04820F08820F108229
:101F42000F20830F01830F02830F04830F08830F77
:101F520010830F20830F40830F80000000810F0247
:101F6200810F04810F08810F10810F20810F4081A2
:101F72000F80800F02800F01000000840F04840F85
:101F820002840F01800F80800F40800F20800F108D
:101F9200000000800F10800F20800F40800F80848F
:101FA2000F01840F02840F040000000402010101EA
:101FB2000101010101010206081030202020202029
:101FC2001018FF830F80830F40830F20830F1000B0
:101FD2000000830F02830F01820F20820F10000086
:101FE20000820F10820F20830F01830F0200000076
:0E1FF20000003E4169454569413E0000FF0088
:020000040030CA
:08000000FF08181EFF0B81FF31
:00000001FF
