:0400000045EF00F0D8
:100008005082FACF28F0FBCF29F0E9CF2AF0EACFC7
:100018002BF0E1CF2CF0E2CF2DF0D9CF2EF0DACFB4
:100028002FF0F3CF30F0F4CF31F0F6CF32F0F7CF36
:1000380033F0F8CF34F0F5CF35F09EB29E92F0A0B1
:1000480002D0F096F09035C0F5FF34C0F8FF33C009
:10005800F7FF32C0F6FF31C0F4FF30C0F3FF2FC006
:10006800DAFF2EC0D9FF2DC0E2FF2CC0E1FF2BC064
:10007800EAFF2AC0E9FF29C0FBFF28C0FAFF509217
:100088001100E4EF03F0000E0001726FEDEC05F0D3
:1000980004A404D0000E136E000E146E04A007D042
:1000A8001350D8A402D0010E01D0000E136E04A282
:1000B80079D01450D8A402D0010E01D0000E146ECD
:1000C80071D0000E146E1350D8A402D0010E01D0C6
:1000D800000E0001726F7CD0010E00016C6F13508E
:1000E800D8A406D01450D8A403D0000E00016C6F19
:1000F8006CC072F06DD0000E00016D6F1350D8B453
:1001080006D01450D8B403D0010E00016D6F6DC035
:1001180072F05ED0010E00016E6F1350D8B403D098
:100128001450D8B409D01350D8A403D01450D8A46C
:1001380003D0000E00016E6F6EC072F049D0000E41
:1001480000016F6F1350D8A406D01450D8A403D060
:10015800010E00016F6F6FC072F03AD0010E0001FE
:10016800706F1350D8B406D01450D8B403D0000E12
:100178000001706F70C072F02BD0000E0001716F1B
:100188001350D8B403D01450D8B409D01350D8A4FD
:1001980003D01450D8A403D0010E0001716F71C0B0
:1001A80072F016D01150000AD8B48BD7010AD8B40F
:1001B80093D7030AD8B49FD7010AD8B4ABD7070A94
:1001C800D8B4BDD7010AD8B4C9D7030AD8B4D5D78B
:1001D80013C048F0000EC7EC05F014C048F0010E3B
:1001E800C7EC05F0940E486E1F0E496E11C04AF018
:1001F80022EC05F072C048F0090EC7EC05F01200B9
:1002080004AC0ED0232A030E236402D0000E236E02
:10021800000E166E000E156E000E1A6E010E1B6E85
:1002280004A607D01650D8A402D0010E01D0000EA3
:10023800166E04AA61D01550D8A402D0010E01D0C0
:10024800000E156E59D004A864D01650D8A407D053
:100258001550D8B404D0000E1A6E010E1B6E16503D
:10026800D8B407D01550D8A404D0010E1A6E000EC9
:100278001B6E1650D8B44DD01550D8B44AD0000EC5
:100288001A6E38D004A845D01650D8A407D01550F7
:10029800D8B404D0000E1A6E010E1B6E1650D8B4D6
:1002A80007D01550D8A404D0010E1A6E000E1B6E8C
:1002B8001650D8B42ED01550D8B42BD01A50D8B464
:1002C8000AD0000E09D01B6E24D0000E156E04A8AB
:1002D80020D01650F1D7010E1A6E1B5009D0010E0E
:1002E800F2D7000E156E04A814D016C01AF01650D6
:1002F800D8B4F5D7000EE7D72350000AD8B4A3D74F
:10030800010AD8B4BFD7030AD8B4DFD7010AD8B4D2
:10031800E8D716C048F00A0EC7EC05F02650100BB7
:10032800486E0B0EC7EC05F015C048F00C0EC7EC74
:1003380005F0E20E486E1F0E496E23C04AF022EC0B
:1003480005F01AC048F0110EC7EC05F01BC048F0C4
:10035800120EC7EC05F01200E00ED36E000E9B6E75
:10036800000E7E6E000E7F6E030E926EFE0E936E72
:10037800000E946E000E956E000E966E020ECA6EFA
:10038800000ECC6E7D0ECB6ED5EC05F0B9EC03F00B
:10039800F096F18A9D82F28CF28ECA84000E196E54
:1003A800030034EC02F0A3EC05F08CEC05F05BECF8
:1003B80005F033D082EC04F04DD004EC05F04AD0BF
:1003C8000DEC04F047D0160E486E1F0E496E010E54
:1003D8004A6E74EC05F03ED0D9EC02F03BD00A0E20
:1003E8001818D8A402D0010E01D0000E8CEC03F02E
:1003F80031D059EC03F02ED08CEC02F02BD047EC26
:1004080000F004EC01F0020E1818D8A402D0010E76
:1004180001D0000E5DEC04F01DD01850000AD8B4CD
:10042800C9D7030AD8B4C9D7070AD8B4C9D7010AA3
:10043800D8B4C9D7030AD8B4CFD7010AD8B4CFD70C
:100448000F0AD8B4D6D7010AD8B4D6D7030AD8B475
:10045800C6D7D5D71950D8B4A1D7C4EC04F09ED7C5
:100468000F50D8B406D00F06000E056E000E046EAD
:100478001200130E0F6E26C039F027C03AF0000E96
:10048800276E000E266E5E0E3D6E1F0E3E6E000E2F
:100498003C6E010E3B6E27D0020E3D24366E000ED8
:1004A8003E20376E36C0F6FF37C0F7FF0800F5CF9D
:1004B80038F03DC0F6FF3EC0F7FF0900F5CFD9FF81
:1004C8000900F5CFDAFFDF5038140009D8B404D09A
:1004D8003B5026123C502712030E3D26000E3E22AA
:1004E800D8903B363C363DC0F6FF3EC0F7FF0900CA
:1004F800F5500900F510D8A4CFD7391C366E3A1C30
:10050800376E26503614046E27503714056E1200C5
:10051800000E4C6E000E5DEC04F0EDEC05F004B03E
:100528000EC013F004A21AD00EC014F017D0135046
:100538000F0A0CD01350141009D01350141406D0FD
:100548001350141803D013501410F2D74C6E1CD04B
:1005580013501414EDD713501418EAD71150000A89
:10056800D8B4E5D7010AD8B4E5D7030AD8B4E5D793
:10057800010AD8B4E5D7070AD8B4E5D7010AD8B430
:10058800E7D7030AD8B4E7D7940E486E1F0E496E12
:1005980011C04AF022EC05F0D30E486E1F0E496ECA
:1005A8004CC04AF040EC05F0120001C0F6FF02C052
:1005B800F7FF03C0F8FF0800F550FF0AD8A40AD0D7
:1005C80008C0D9FF09C0DAFFDECF01F0DECF02F0A4
:1005D800DDCF03F07C0E486E1F0E496E01C0F6FF9A
:1005E80002C0F7FF03C0F8FF0800F5CF4AF040EC5F
:1005F80005F0010E0126000E0222000E032204A2BD
:100608001200030E0826000E092208C0D9FF09C0EF
:10061800DAFFDE50DE10DE10D8A404D0600E086EBB
:10062800000E096E08C0D9FF09C0DAFFDECF01F05D
:10063800DECF02F0DDCF03F012004450D8B41AD058
:10064800020E4224456E000E4320466E45C0F6FF5A
:1006580046C0F7FF0800F5CF47F042C0F6FF43C099
:10066800F7FF0900F5CFD9FF0900F5CFDAFF4750AA
:10067800DF121200020E4224456E000E4320466E21
:1006880045C0F6FF46C0F7FF0800F550FF0A476E61
:1006980042C0F6FF43C0F7FF0900F5CFD9FF0900B4
:1006A800F5CFDAFF4750DF1612002550D8A411D035
:1006B80017500A0DF3500008C80F256E1050242655
:1006C8002450D8A402D0010E106E060E2418D8B4F7
:1006D8001068250604A20BD0030E2418D8A405D050
:1006E8000F0E176004D0172A02D0000E176E940E52
:1006F800486E1F0E496E24C04AF022EC05F0C40E65
:10070800486E1F0E496E17C04AF040EC05F0120003
:100718004B6E26A204D0000E206E000E216E640ED1
:1007280020600ED02050215CD8B002D0212A08D0F9
:10073800050E2026000E216E060E35EC04F0226E02
:100748004B50D8B409D0940E486E1F0E496E22C083
:100758004AF022EC05F01200C40E486E1F0E496ED6
:1007680022284A6E40EC05F01200160E486E1F0E45
:10077800496E000E4A6E74EC05F0FFEC05F0E2ECF1
:1007880005F018EC06F013EC06F0B8EC05F006ECF2
:1007980006F0F6EC05F0010E1D6E010E186E140E33
:1007A8001E6E000E1F6E000E0D6E000E0C6E000EFB
:1007B8000B6E000E0A6E000E076E000E066E12001B
:1007C80000EE01F0270EEE6AE806FDE11A0EF66E5D
:1007D8000C0EF76E000EF86E00EE60F010EE0CF0E6
:1007E8000900F5CFEEFFE550E150FAE1360EF66E5E
:1007F8000C0EF76E000EF86E0900F5CF4EF00900EA
:10080800F5CF4FF050905092000EF86E0001B0EF07
:1008180001F004A007D01250D8A402D0010E01D0D4
:10082800000E126E04A202D0000E1C6E04A40BD09F
:100838001250D8B403D04B6A4B2A01D04B6A1C50D3
:100848001C244B101C6E12C048F0000EC7EC05F0BB
:10085800940E486E1F0E496E1CC04AF040EC05F01D
:100868001200416E010E3B6ED00E3C6E010E4E140E
:100878003D6E000E4F143E6E3D1E3E1E3D4A3E2A02
:100888003B503D163C503E16D8904F30406E4E308F
:100898003F6E3D503F184E6E3E5040184F6E4F50C1
:1008A800366E376A41C038F0396AA3EC04F0365026
:1008B80012004B6E04BE0E2A05B00E060F0E0E1661
:1008C8004B50D8B412D0C40E486E1F0E496E0E504D
:1008D800010D510EF324F66E1E0EF420F76E08007B
:1008E800F5CF4AF040EC05F01200C40E486E1F0E1A
:1008F800496E0EC04AF040EC05F0120004AE04D078
:100908000A0E1D6001D01D2A05A004D0010E1D6429
:1009180001D01D06C40E486E1F0E496E1DC04AF058
:1009280040EC05F004A21200160E486E1F0E496E28
:10093800000E4A6E74EC05F01DC018F01200385015
:100948003910D8B418D0010E3A6E04D0D890383681
:1009580039363A2A39AEFAD73850365C39503758D2
:10096800D8A004D03850365E3950375AD89039322A
:1009780038323A2EF1D736C036F037C037F0120089
:10098800CA94000ECC6E160E486E1F0E496E000EED
:100998004A6E74EC05F0D39EF0860300340E4B6E5D
:1009A800F20EE82EFED74B2EFCD781A2F5D7D38EB8
:1009B800D5EC05F0CA84000E076E000E066E120014
:1009C80014D048C042F049C043F04A5035EC04F016
:1009D8000009D8A402D0010E01D0000E446E21EC0B
:1009E80003F0030E4826000E492248C0F6FF49C00E
:1009F800F7FF0900F5500900F510D8B41200E1D747
:100A08001F50D8B402D01F060AD01EC01FF0160E01
:100A1800486E1F0E496E320E4A6EE4EC04F004AEC6
:100A280005D0090E1E6402D00A0E1E5E05A0120033
:100A3800F10E1E6012000A0E1E26120012D048C0C7
:100A480042F049C043F04A50D8A402D0010E01D068
:100A5800000E446E21EC03F0030E4826000E4922D6
:100A68004A0648C0F6FF49C0F7FF0900F5500900DB
:100A7800F510D8B41200E3D70FD048C042F049C0EF
:100A880043F04A50010B446E21EC03F0030E482654
:100A9800000E4922D8904A3248C0F6FF49C0F7FFF5
:100AA8000900F5500900F510D8B41200E6D7045033
:100AB8000510D8B405D0000E076E000E066E1200A1
:100AC800600E065CEA0E0758D8B003D0064A072A1B
:100AD8001200000E076E000E066E010E196E12004F
:100AE8000CD048C042F049C043F04AC044F021EC61
:100AF80003F0030E4826000E492248C0F6FF49C0FD
:100B0800F7FF0900F5500900F510D8B41200E9D72D
:100B180026B205D0000E0B6E000E0A6E1200D00E23
:100B28000A5C070E0B58D8B003D00A4A0B2A1200E9
:100B3800000E0B6E000E0A6E010E196E120026B022
:100B480005D0000E0D6E000E0C6E1200D00E0C5C5F
:100B5800070E0D58D8B003D00C4A0D2A1200B9EC74
:100B680003F0000E186E1200600E086E000E096E7B
:100B780008C0D9FF09C0DAFFDECF01F0DECF02F0EE
:100B8800DDCF03F01200496E4950030D160EF32411
:100B9800426E1F0EF420436E48C044F021EC03F06F
:100BA8001200000E276E000E266E000E0F6E34EC3B
:100BB80002F0000E056E000E046E1200000E236E89
:100BC800000E166E000E156E000E1A6E010E1B6ECC
:100BD800120004A41200112A060E11641200000E5D
:100BE800116E1200000E176E000E256E000E246E98
:100BF800000E106E1200000E116E000E136E000E25
:100C0800146E1200640E206E000E216E000E226E0D
:100C18001200AC1F00611E00F11F00000000000E52
:100C2800126E000E1C6E1200000E0E6E120025EDE4
:101E50000000010302060705040C0D0F0E0A0B0912
:101E6000080000000000000000000000000000006A
:101E70000000000000000000000000000000000062
:101E80000030213F3F213000213F3F083F3F2100EC
:101E9000213F3F292933000000213F3F21213F1EE0
:101EA00000213F3F21001E3F2127370400213F3FF3
:101EB0002100213F3F243F1B01203E3F01213E20C6
:101EC00000213F3F210300213F3F2929330000002B
:101ED000213F3F243F1B01203E3F01213E200021A6
:101EE0003F3F210300213F3F29293300193D2D2F7A
:101EF00026003D3D00000000000000000000000042
:101F000000000000000000000000000000000000D1
:101F10000000000000FF800F04800F08800F108079
:101F20000F20800F40800F80840F01840F02840FE8
:101F300004820F01820F02820F04820F08820F10A9
:101F4000820F20830F01830F02830F04830F088306
:101F50000F10830F20830F40830F80000000810F3C
:101F600002810F04810F08810F10810F20810F4023
:101F7000810F80800F02800F01000000840F048415
:101F80000F02840F01800F80800F40800F20800F90
:101F900010000000800F10800F20800F40800F8005
:101FA000840F01840F02840F040000000402010169
:101FB000010101010101010206081030202020204A
:101FC000201018FF830F80830F40830F20830F1092
:101FD000000000830F02830F01820F20820F100088
:101FE0000000820F10820F20830F01830F02000078
:101FF0000000003E4169454569413E0000FF000088
:020000040030CA
:08000000FF081C1EFF0B81FF2D
:00000001FF
